:1000000057C089C270C06FC06EC06DC06CC06BC07D
:100010006AC069C068C067C066C065C064C063C0AC
:1000200062C061C060C005010902A1010901A1000F
:1000300005091901290315002501950375018102A0
:1000400095017505810305010930093109381581CC
:10005000257F750895038106C0C0090222000101B1
:1000600000800A09040000010300000009210101C9
:100070000001223400070581030800641201100109
:1000800000000008C016E8030001010200010C0393
:100090005200450048004D00410012036F0062000D
:1000A0006400650076002E006100740004030904FA
:1000B00011241FBECFE5D4E0DEBFCDBF10E0A0E627
:1000C000B0E0ECE5F7E002C005900D92A436B10770
:1000D000D9F710E0A4E6B0E001C01D92A23AB10742
:1000E000E1F727D039C38CCFFC0180818076803244
:1000F000E1F48181813041F484E690E090938700BF
:100100008093860084E00895823041F488E690E090
:10011000909387008093860081E008958A3039F4B7
:1001200083818093680080E0089580E0089580E0F6
:1001300008952EE088E190E00FB6F894A89581BD6F
:100140000FBE21BDC2D18C9A8FEFA895EFE9FFE0D9
:100150003197F1F700C000008150B9F78C9878947E
:10016000C7E7D0E00F2EF5E6EF2EF0E0FF2EF02DE2
:1001700006E610E00F2EFEEFCF2EFFEFDF2EF02D64
:10018000C00ED11E0F2EF0EEAF2EFFEFBF2EF02DC2
:10019000A8956DD0888184FFFBCF40916900509174
:1001A0006A00141615061CF480E290E001C0C50137
:1001B000840F951F9C01022E232F000C221F330B4E
:1001C000000C221F331FF701208380916000909163
:1001D0006100BC01620F711D9B017093610060930F
:1001E0006000161617061CF480E290E001C0C501FD
:1001F000820F931F082E892F000C881F990B000C6B
:10020000881F991FF80180839A01281B31093093B8
:100210006A0020936900C60164E001D0B9CF0F9352
:100220001F93CF93C62F2091770024FF07C03091F2
:10023000780028E823272093780003C02AE520933C
:100240007700E82FF92F8C2FA9E7B0E091919D93CB
:100250008150E1F709E710E0C8016C2F58D1CC5F5D
:10026000F8013297C083CF911F910F910895CF93DA
:10027000DF938091880083500AF4B4C020918500F8
:10028000909184009D3209F0ABC0883009F0A8C07D
:10029000CCE0D0E0C21BD109C457DF4F83EC809380
:1002A0006C008AE58093620010926B0088818076F2
:1002B00019F0CE0119DF8BC09A81109275008981E7
:1002C000882331F41092760025E730E082E07BC08D
:1002D000853031F49093890025E730E080E073C0E9
:1002E000863009F050C08B81813041F48CE790E07A
:1002F000909387008093860082E141C0823041F470
:100300008AE590E0909387008093860082E237C070
:100310008330F1F4992341F48CEA90E090938700C4
:100320008093860084E02BC0913041F48AE990E00C
:10033000909387008093860082E121C09230E1F49F
:100340008EE890E090938700809386008CE017C041
:10035000813241F48CE690E0909387008093860090
:1003600089E00DC0823251F486E290E090938700DC
:100370008093860084E303C080E001C080E090E4C5
:1003800090936B0024C0883099F0893031F49093B9
:100390008B0025E730E080E016C08A3069F08B30B2
:1003A00079F48BE48093780025E730E080E00BC09F
:1003B0002BE830E081E007C025E730E081E003C0B2
:1003C00025E730E080E030938700209386009F810E
:1003D000992321F49E81981708F4892F8093630054
:1003E000109288008091620084FF58C08091630061
:1003F0008F3F09F453C0C82F893008F0C8E08C1B28
:100400008093630090916C0088E8892780936C004A
:10041000CC2309F451C0209186003091870080914F
:100420006B0086FF16C04C2F415050E0ACE6B0E0A8
:10043000CD010296840F951FF901119664916D9379
:100440003196A817B907D1F72F5F3F4F420F531FBF
:1004500015C06C2F615070E0ECE6F0E0CF01029621
:10046000860F971FD90131964D914193E817F907EF
:10047000D9F7A9014F5F5F4F460F571F5093870071
:10048000409386008DE690E06C2F41D0CC5FCC305D
:1004900018F48FEF80936300C093620080B384717F
:1004A00089F483E190B3947169F48150D9F7109283
:1004B00089001092830006C08DE690E06C2F27D053
:1004C000CC5FE7CFDF91CF91089585B7826085BF7C
:1004D0008BB780648BBF8BE4809378008AE5809330
:1004E00077000895A82FB92F80E090E041E050EA0E
:1004F000609530E009C02D9182279795879510F07F
:1005000084279527305EC8F36F5FA8F30895EADF6C
:100510008D939D930895CF93CFB7CF93DF93C395DA
:10052000849BE9F7849B0BC0849B09C0849B07C014
:10053000849B05C0849B03C0849B01C08BC06F93C8
:10054000C0918500DD27C457DF4F2F9365E5849B5D
:1005500003C02F916F91E6CF0F931F934F9320E02D
:1005600040E15F9300B3047104FB27F93F9350E02F
:100570003BE039C0147140642F77012F5F5F1EC0CC
:10058000406810B314712F7752501FC0406400B3FD
:100590002F770471D1F15F5F00C023C0406210B3B8
:1005A0002F77147191F15F5F00C025C0047110278F
:1005B000515012F45D5F0000115027952C3F10B38D
:1005C000C8F614710127015027952C3FC8F6422721
:1005D000499300B3047110274F73115027952C3F96
:1005E000A8F64695469510B3147179F0012701508D
:1005F00027952C3F98F66B5A60F3315000B3B0F654
:1006000000C010E41ABF002719C03B503195C31B2E
:10061000D04010E41ABF0881033C09F10B34F9F013
:10062000209183001981110F1213EDCF4A81441FCD
:10063000093651F10D3211F0013E29F700938A007D
:100640003F915F914F911F910F912F916F91CAB779
:10065000C6FD65CFDF91CF91CFBFCF911895209187
:100660008A00222369F310918800112391F5343018
:1006700092F13093880020938400109185003BE034
:10068000311B3093850027C00091880001300CF5A4
:100690000AE54F7049F43091620034FD1DC00093AB
:1006A0006200CCE6D0E01CC03091770034FD14C06D
:1006B00000937700C8E7D0E013C0052710E000C022
:1006C000000002BB1AC0052710E0221F1DC010E069
:1006D00021C04AE502C032ED432FC4E1D0E032E050
:1006E00011B31461949A02B311BB54E120E865E39D
:1006F00020FF052702BB279517951C3FF0F666954E
:10070000B8F7B1F720FF052702BB279517951C3FC7
:10071000D0F62795179517FF052700001C3F02BB51
:10072000B0F629913A9519F70B7E10918900110FB7
:10073000C651D04002BB11F01093830010E41ABFE1
:10074000006111B31B7E402F4B7E54E05A95F1F7A8
:0C07500002BB11BB42BB74CFF894FFCF7A
:04075C00C0015AFF7F
:00000001FF
