S00B000045454C2E7372656343
S113000057C08BC070C06FC06EC06DC06CC06BC079
S11300106AC069C068C067C066C065C064C063C0A8
S113002062C061C060C005010902A1010901A1000B
S1130030050919012903150025019503750181029C
S113004095017505810305010930093109381581C8
S1130050257F750895038106C0C0090222000101AD
S113006000801909040000010300000009210101B6
S11300700001223400070581030800641201100105
S113008000000008C016E8030001010200010C038F
S11300906D004F0055005300450012036F006200CD
S11300A06400650076002E006100740004030904F6
S11300B011241FBECFE5D4E0DEBFCDBF10E0A0E623
S11300C0B0E0E8E3F6E002C005900D92A236B10775
S11300D0D9F720E0A2E6B0E001C01D92AE39B20724
S11300E0E1F762D1A7C28CCFA82FB92F80E090E0AE
S11300F041E050EA609530E009C02D918227979540
S1130100879510F084279527305EC8F36F5FA8F3B6
S11301100895EADF8D939D930895CF93CFB7CF933E
S1130120DF93C395849BE9F7849B0BC0849B09C030
S1130130849B07C0849B05C0849B03C0849B01C02F
S11301408BC06F93C0918100DD27C857DF4F2F9379
S113015065E5849B03C02F916F91E6CF0F931F93A6
S11301604F9320E040E15F9300B3047104FB27F94F
S11301703F9350E03BE039C0147140642F77012F66
S11301805F5F1EC0406810B314712F7752501FC0B8
S1130190406400B32F770471D1F15F5F00C023C0C6
S11301A0406210B32F77147191F15F5F00C025C0D6
S11301B004711027515012F45D5F0000115027950F
S11301C02C3F10B3C8F614710127015027952C3F1A
S11301D0C8F64227499300B3047110274F73115096
S11301E027952C3FA8F64695469510B3147179F0DF
S11301F00127015027952C3F98F66B5A60F3315034
S113020000B3B0F600C010E41ABF002719C03B5079
S11302103195C31BD04010E41ABF0881033C09F197
S11302200B34F9F020917F001981110F1213EDCFD7
S11302304A81441F093651F10D3211F0013E29F76C
S1130240009386003F915F914F911F910F912F91E1
S11302506F91CAB7C6FD65CFDF91CF91CFBFCF9164
S1130260189520918600222369F3109184001123AC
S113027091F5343092F130938400209380001091F2
S113028081003BE0311B3093810027C00091840042
S113029001300CF50AE54F7049F43091610034FDEA
S11302A01DC000936100C8E6D0E01CC0309173000B
S11302B034FD14C000937300C4E7D0E013C00527D5
S11302C010E000C0000002BB1AC0052710E0221F86
S11302D01DC010E021C04AE502C032ED432FC4E145
S11302E0D0E032E011B31461949A02B311BB54E12B
S11302F020E865E320FF052702BB279517951C3FDF
S1130300F0F66695B8F7B1F720FF052702BB2795ED
S113031017951C3FD0F62795179517FF0527000062
S11303201C3F02BBB0F629913A9519F70B7E109148
S11303308500110FC651D04002BB11F010937F000D
S113034010E41ABF006111B31B7E402F4B7E54E0B2
S11303505A95F1F702BB11BB42BB74CFFC0120815B
S113036020762032E9F42181213041F483E690E0C3
S1130370909383008093820084E00895223041F4B6
S113038082E690E0909383008093820081E0089558
S11303902A3041F4FC0183818093620080E0089557
S11303A080E0089580E008952EE088E190E00FB6A3
S11303B0F894A89581BD0FBE21BD2FD18C9A8AEFE8
S11303C0A895EFE3FFE13197F1F700C000008150F9
S11303D0B9F78C987894A89501D0FDCFCF93DF938B
S11303E08091840083500AF4B4C0209181009091DC
S11303F080009D3209F0ABC0883009F0A8C0CCE081
S1130400D0E0C21BD109C857DF4F83EC809368004A
S11304108AE580936100109267008881807619F0E4
S1130420CE019CDF8BC09A81109271008981811169
S113043006C01092720021E730E082E07BC0853074
S113044031F49093850021E730E080E073C086307A
S113045009F050C08B81813041F48CE790E0909397
S113046083008093820082E141C0823041F48AE5B6
S113047090E0909383008093820082E237C08330BF
S1130480F1F4911108C08CEA90E09093830080937A
S1130490820084E02BC0913041F48AE990E090938B
S11304A083008093820082E121C09230E1F48EE8DF
S11304B090E090938300809382008CE017C0813297
S11304C041F48CE690E0909383008093820089E06D
S11304D00DC0823251F486E290E0909383008093C1
S11304E0820084E303C080E001C080E090E4909344
S11304F0670024C0883099F0893031F490938700E4
S113050021E730E080E016C08A3069F08B3079F45E
S11305108BE48093740021E730E080E00BC027E88F
S113052030E081E007C021E730E081E003C021E74B
S113053030E080E030938300209382009F8191110A
S113054004C09E81981708F4892F8093600010924C
S113055084008091610084FF49C0809160008F3FD6
S113056009F444C0C82F893008F0C8E08C1B80937C
S11305706000E8E6F0E0908188E889278083CC2356
S113058009F442C080918200909183002091670019
S113059026FF0FC0A9E6B0E0FC012C2F34913D9357
S11305A031962150D9F701962FEF2C0F820F911D10
S11305B00DC0A9E6B0E0FC012C2F31913D932150F0
S11305C0E1F701962FEF2C0F820F911D909383007A
S11305D0809382006C2F89E690E09BDDCC5FCC3069
S11305E018F48FEF80936000C093610080B384712E
S11305F089F483E190B3947169F48150D9F710922E
S1130600850010927F0006C06C2F89E690E081DDA2
S1130610CC5FE7CFDF91CF91089585B7826085BF26
S11306208BB780648BBF8BE4809374008AE58093DE
S10B063073000895F894FFCF54
S1050638FF5A63
S9030000FC
