S01400004C434420617474656D7074732E73726563AB
S113000012C024C023C022C021C020C01FC01EC0F3
S11300101DC01CC01BC01AC019C018C017C016C010
S113002015C014C013C011241FBECFE5D4E0DEBF39
S1130030CDBF10E0A0E6B0E0E8E1F1E002C0059039
S11300400D92AC36B107D9F754D064C0D9CF82BB76
S113005084E088BB89EF90E00197F1F700C00000CD
S113006018BA83ED90E30197F1F700C000000895FA
S113007088E3EDDF89EF90E00197F1F700C000001D
S113008081E0E5DF89EF90E00197F1F700C000001F
S11300908EE0DDDF89EF90E00197F1F700C000000A
S11300A080E8D5DF89EF90E00197F1F700C0000008
S11300B0089582BB85E088BB89EF90E00197F1F752
S11300C000C0000081E088BB83ED90E30197F1F765
S11300D000C000000895CF93DF93EC01888188234A
S11300E029F02196E6DF89918111FCCFDF91CF9130
S11300F008958FEF81BB87E087BBBADF83ED90E380
S11301000197F1F700C0000080E690E0E4DF80E0B2
S10B011090E00895F894FFCF7C
S10F011856697368752042686169000034
S9030000FC
